{
  "contractName": "BattleShip",
  "abi": [
    {
      "constant": true,
      "inputs": [],
      "name": "requiredToWinPlayer1",
      "outputs": [
        {
          "name": "",
          "type": "uint8"
        }
      ],
      "payable": false,
      "stateMutability": "view",
      "type": "function"
    },
    {
      "constant": true,
      "inputs": [],
      "name": "gamePlayer1",
      "outputs": [
        {
          "name": "player",
          "type": "uint8"
        },
        {
          "name": "gameState",
          "type": "uint8"
        },
        {
          "name": "merkleRoot",
          "type": "bytes32"
        },
        {
          "name": "move",
          "type": "uint8"
        }
      ],
      "payable": false,
      "stateMutability": "view",
      "type": "function"
    },
    {
      "constant": true,
      "inputs": [],
      "name": "storedData",
      "outputs": [
        {
          "name": "",
          "type": "uint256"
        }
      ],
      "payable": false,
      "stateMutability": "view",
      "type": "function"
    },
    {
      "constant": true,
      "inputs": [],
      "name": "flag2",
      "outputs": [
        {
          "name": "",
          "type": "bool"
        }
      ],
      "payable": false,
      "stateMutability": "view",
      "type": "function"
    },
    {
      "constant": true,
      "inputs": [],
      "name": "currentPlayer",
      "outputs": [
        {
          "name": "",
          "type": "uint8"
        }
      ],
      "payable": false,
      "stateMutability": "view",
      "type": "function"
    },
    {
      "constant": true,
      "inputs": [],
      "name": "flag1",
      "outputs": [
        {
          "name": "",
          "type": "bool"
        }
      ],
      "payable": false,
      "stateMutability": "view",
      "type": "function"
    },
    {
      "constant": true,
      "inputs": [
        {
          "name": "",
          "type": "address"
        }
      ],
      "name": "player",
      "outputs": [
        {
          "name": "",
          "type": "uint8"
        }
      ],
      "payable": false,
      "stateMutability": "view",
      "type": "function"
    },
    {
      "constant": true,
      "inputs": [],
      "name": "FirstMove",
      "outputs": [
        {
          "name": "",
          "type": "bool"
        }
      ],
      "payable": false,
      "stateMutability": "view",
      "type": "function"
    },
    {
      "constant": true,
      "inputs": [],
      "name": "previousMovePlayer1",
      "outputs": [
        {
          "name": "",
          "type": "uint8"
        }
      ],
      "payable": false,
      "stateMutability": "view",
      "type": "function"
    },
    {
      "constant": true,
      "inputs": [],
      "name": "gamePlayer2",
      "outputs": [
        {
          "name": "player",
          "type": "uint8"
        },
        {
          "name": "gameState",
          "type": "uint8"
        },
        {
          "name": "merkleRoot",
          "type": "bytes32"
        },
        {
          "name": "move",
          "type": "uint8"
        }
      ],
      "payable": false,
      "stateMutability": "view",
      "type": "function"
    },
    {
      "constant": true,
      "inputs": [],
      "name": "requiredToWinPlayer2",
      "outputs": [
        {
          "name": "",
          "type": "uint8"
        }
      ],
      "payable": false,
      "stateMutability": "view",
      "type": "function"
    },
    {
      "constant": true,
      "inputs": [],
      "name": "temphash",
      "outputs": [
        {
          "name": "",
          "type": "bytes32"
        }
      ],
      "payable": false,
      "stateMutability": "view",
      "type": "function"
    },
    {
      "constant": true,
      "inputs": [],
      "name": "previousMovePlayer2",
      "outputs": [
        {
          "name": "",
          "type": "uint8"
        }
      ],
      "payable": false,
      "stateMutability": "view",
      "type": "function"
    },
    {
      "anonymous": false,
      "inputs": [
        {
          "indexed": false,
          "name": "gameStarted",
          "type": "string"
        }
      ],
      "name": "logGameStarted",
      "type": "event"
    },
    {
      "anonymous": false,
      "inputs": [
        {
          "indexed": false,
          "name": "gameJoined",
          "type": "string"
        }
      ],
      "name": "logGameJoined",
      "type": "event"
    },
    {
      "anonymous": false,
      "inputs": [
        {
          "indexed": false,
          "name": "player",
          "type": "string"
        }
      ],
      "name": "logCurrentPlayer",
      "type": "event"
    },
    {
      "anonymous": false,
      "inputs": [
        {
          "indexed": false,
          "name": "current",
          "type": "uint8"
        }
      ],
      "name": "logReturnValue",
      "type": "event"
    },
    {
      "anonymous": false,
      "inputs": [
        {
          "indexed": false,
          "name": "current",
          "type": "string"
        }
      ],
      "name": "logReturnValue1",
      "type": "event"
    },
    {
      "anonymous": false,
      "inputs": [
        {
          "indexed": false,
          "name": "winner",
          "type": "string"
        }
      ],
      "name": "logGameWinner",
      "type": "event"
    },
    {
      "anonymous": false,
      "inputs": [
        {
          "indexed": false,
          "name": "gamePlaying",
          "type": "string"
        }
      ],
      "name": "logGamePlaying",
      "type": "event"
    },
    {
      "anonymous": false,
      "inputs": [
        {
          "indexed": false,
          "name": "ship",
          "type": "uint8"
        }
      ],
      "name": "logGameHit",
      "type": "event"
    },
    {
      "anonymous": false,
      "inputs": [
        {
          "indexed": false,
          "name": "position",
          "type": "uint8"
        }
      ],
      "name": "logGamepreviousMove",
      "type": "event"
    },
    {
      "constant": false,
      "inputs": [],
      "name": "get",
      "outputs": [],
      "payable": false,
      "stateMutability": "nonpayable",
      "type": "function"
    },
    {
      "constant": false,
      "inputs": [
        {
          "name": "merkleroot",
          "type": "bytes32"
        }
      ],
      "name": "newGame",
      "outputs": [],
      "payable": false,
      "stateMutability": "nonpayable",
      "type": "function"
    },
    {
      "constant": false,
      "inputs": [
        {
          "name": "merkleroot",
          "type": "bytes32"
        }
      ],
      "name": "joinGame",
      "outputs": [],
      "payable": false,
      "stateMutability": "nonpayable",
      "type": "function"
    },
    {
      "constant": false,
      "inputs": [
        {
          "name": "move",
          "type": "uint8"
        },
        {
          "name": "leafValue",
          "type": "string"
        },
        {
          "name": "merkleProof",
          "type": "bytes32[7]"
        }
      ],
      "name": "makeMove",
      "outputs": [],
      "payable": false,
      "stateMutability": "nonpayable",
      "type": "function"
    }
  ],
  "bytecode": "0x608060405234801561001057600080fd5b50611a08806100206000396000f3006080604052600436106100f1576000357c0100000000000000000000000000000000000000000000000000000000900463ffffffff168063041c2e01146100f65780630a150e2b1461012757806320a5ecf1146101895780632a1afcd91461022e5780633004511f146102595780634404a4381461028857806349ed7394146102b95780634c54e1b5146102e85780635447ad7114610345578063554b3f49146103765780635b0219f6146103a55780636cfae24f146103d65780636d4ce63c14610438578063845ff3401461044f578063864753fc14610480578063bf474766146104b3578063d0b81507146104e4575b600080fd5b34801561010257600080fd5b5061010b610515565b604051808260ff1660ff16815260200191505060405180910390f35b34801561013357600080fd5b5061013c610527565b604051808560ff1660ff16815260200184600481111561015857fe5b60ff16815260200183600019166000191681526020018260ff1660ff16815260200194505050505060405180910390f35b34801561019557600080fd5b5061022c600480360381019080803560ff169060200190929190803590602001908201803590602001908080601f01602080910402602001604051908101604052809392919081815260200183838082843782019150505050505091929192908060e0019060078060200260405190810160405280929190826007602002808284378201915050505050919291929050505061056c565b005b34801561023a57600080fd5b50610243610f22565b6040518082815260200191505060405180910390f35b34801561026557600080fd5b5061026e610f28565b604051808215151515815260200191505060405180910390f35b34801561029457600080fd5b5061029d610f3b565b604051808260ff1660ff16815260200191505060405180910390f35b3480156102c557600080fd5b506102ce610f4e565b604051808215151515815260200191505060405180910390f35b3480156102f457600080fd5b50610329600480360381019080803573ffffffffffffffffffffffffffffffffffffffff169060200190929190505050610f61565b604051808260ff1660ff16815260200191505060405180910390f35b34801561035157600080fd5b506103746004803603810190808035600019169060200190929190505050610f81565b005b34801561038257600080fd5b5061038b611290565b604051808215151515815260200191505060405180910390f35b3480156103b157600080fd5b506103ba6112a3565b604051808260ff1660ff16815260200191505060405180910390f35b3480156103e257600080fd5b506103eb6112b6565b604051808560ff1660ff16815260200184600481111561040757fe5b60ff16815260200183600019166000191681526020018260ff1660ff16815260200194505050505060405180910390f35b34801561044457600080fd5b5061044d6112fb565b005b34801561045b57600080fd5b506104646112fd565b604051808260ff1660ff16815260200191505060405180910390f35b34801561048c57600080fd5b50610495611310565b60405180826000191660001916815260200191505060405180910390f35b3480156104bf57600080fd5b506104e26004803603810190808035600019169060200190929190505050611316565b005b3480156104f057600080fd5b506104f9611638565b604051808260ff1660ff16815260200191505060405180910390f35b6003809054906101000a900460ff1681565b60068060000160009054906101000a900460ff16908060000160019054906101000a900460ff16908060010154908060020160009054906101000a900460ff16905084565b600080600660000160009054906101000a900460ff1660ff16600160003373ffffffffffffffffffffffffffffffffffffffff1673ffffffffffffffffffffffffffffffffffffffff16815260200190815260200160002060009054906101000a900460ff1660ff1614806106445750600960000160009054906101000a900460ff1660ff16600160003373ffffffffffffffffffffffffffffffffffffffff1673ffffffffffffffffffffffffffffffffffffffff16815260200190815260200160002060009054906101000a900460ff1660ff16145b151561064f57600080fd5b601e43600254031115151561066357600080fd5b6003600481111561067057fe5b600660000160019054906101000a900460ff16600481111561068e57fe5b14806106c25750600360048111156106a257fe5b600960000160019054906101000a900460ff1660048111156106c057fe5b145b15156106cd57600080fd5b600360009054906101000a900460ff1660ff16600660000160009054906101000a900460ff1660ff161415610af557600660010154915061071f8385600360069054906101000a900460ff168561164b565b1515610849577f2310dd094f076c744889c073f71c2a6b6b83915bea3089c2adad25cbb6bde4d960405180806020018281038252601d8152602001807f57696e6e657220697320506c6179657220312062792064656661756c7400000081525060200191505060405180910390a16004600660000160016101000a81548160ff021916908360048111156107af57fe5b02179055506004600960000160016101000a81548160ff021916908360048111156107d657fe5b02179055506040517f08c379a00000000000000000000000000000000000000000000000000000000081526004018080602001828103825260118152602001807f426f61726420776173204368616e67656400000000000000000000000000000081525060200191505060405180910390fd5b600960000160009054906101000a900460ff16600360006101000a81548160ff021916908360ff1602179055507f10b81a2361dbb591571438f8cd02fa66e843c7911d772971a59bc375620c5dc76040518080602001828103825260088152602001807f506c61796572203200000000000000000000000000000000000000000000000081525060200191505060405180910390a17f014310d4ed53bcf0f94a847c27b7342e9bc43136ea435d7ba860afc4b987e2b36040518080602001828103825260078152602001807f506c6179696e670000000000000000000000000000000000000000000000000081525060200191505060405180910390a17f27a52daf99c296cc8f27cd43364125489f78ef0af052c4de56afa954705ed55a610970856118fe565b604051808260ff1660ff16815260200191505060405180910390a17f151e22e8fd4d27fabe973061abb8fba79979e1544004672f276cdf264f14638885604051808260ff1660ff16815260200191505060405180910390a184600360056101000a81548160ff021916908360ff1602179055506109ec846118fe565b6003808282829054906101000a900460ff160192506101000a81548160ff021916908360ff1602179055506020600360049054906101000a900460ff1660ff161415610ae9577f2310dd094f076c744889c073f71c2a6b6b83915bea3089c2adad25cbb6bde4d96040518080602001828103825260128152602001807f57696e6e657220697320506c617965722031000000000000000000000000000081525060200191505060405180910390a16004600660000160016101000a81548160ff02191690836004811115610abc57fe5b02179055506004600960000160016101000a81548160ff02191690836004811115610ae357fe5b02179055505b43600281905550610f1b565b600360009054906101000a900460ff1660ff16600960000160009054906101000a900460ff1660ff161415610f1a576009600101549050610b478385600360059054906101000a900460ff168461164b565b1515610c71577f2310dd094f076c744889c073f71c2a6b6b83915bea3089c2adad25cbb6bde4d960405180806020018281038252601d8152602001807f57696e6e657220697320506c6179657220322062792064656661756c7400000081525060200191505060405180910390a16004600660000160016101000a81548160ff02191690836004811115610bd757fe5b02179055506004600960000160016101000a81548160ff02191690836004811115610bfe57fe5b02179055506040517f08c379a00000000000000000000000000000000000000000000000000000000081526004018080602001828103825260118152602001807f426f61726420776173204368616e67656400000000000000000000000000000081525060200191505060405180910390fd5b600660000160009054906101000a900460ff16600360006101000a81548160ff021916908360ff1602179055507f10b81a2361dbb591571438f8cd02fa66e843c7911d772971a59bc375620c5dc76040518080602001828103825260088152602001807f506c61796572203100000000000000000000000000000000000000000000000081525060200191505060405180910390a17f014310d4ed53bcf0f94a847c27b7342e9bc43136ea435d7ba860afc4b987e2b36040518080602001828103825260078152602001807f506c6179696e670000000000000000000000000000000000000000000000000081525060200191505060405180910390a17f27a52daf99c296cc8f27cd43364125489f78ef0af052c4de56afa954705ed55a610d98856118fe565b604051808260ff1660ff16815260200191505060405180910390a17f151e22e8fd4d27fabe973061abb8fba79979e1544004672f276cdf264f14638885604051808260ff1660ff16815260200191505060405180910390a184600360066101000a81548160ff021916908360ff160217905550610e14846118fe565b600360048282829054906101000a900460ff160192506101000a81548160ff021916908360ff1602179055506020600360049054906101000a900460ff1660ff161415610f12577f2310dd094f076c744889c073f71c2a6b6b83915bea3089c2adad25cbb6bde4d96040518080602001828103825260128152602001807f57696e6e657220697320506c617965722032000000000000000000000000000081525060200191505060405180910390a16004600660000160016101000a81548160ff02191690836004811115610ee557fe5b02179055506004600960000160016101000a81548160ff02191690836004811115610f0c57fe5b02179055505b436002819055505b5b5050505050565b60005481565b600360029054906101000a900460ff1681565b600360009054906101000a900460ff1681565b600360019054906101000a900460ff1681565b60016020528060005260406000206000915054906101000a900460ff1681565b60006004811115610f8e57fe5b600660000160019054906101000a900460ff166004811115610fac57fe5b141515610fb857600080fd5b60018060003373ffffffffffffffffffffffffffffffffffffffff1673ffffffffffffffffffffffffffffffffffffffff16815260200190815260200160002060006101000a81548160ff021916908360ff160217905550608060405190810160405280600160003373ffffffffffffffffffffffffffffffffffffffff1673ffffffffffffffffffffffffffffffffffffffff16815260200190815260200160002060009054906101000a900460ff1660ff1681526020016001600481111561107e57fe5b815260200182600019168152602001600060ff16815250600660008201518160000160006101000a81548160ff021916908360ff16021790555060208201518160000160016101000a81548160ff021916908360048111156110dc57fe5b02179055506040820151816001019060001916905560608201518160020160006101000a81548160ff021916908360ff160217905550905050600160003373ffffffffffffffffffffffffffffffffffffffff1673ffffffffffffffffffffffffffffffffffffffff16815260200190815260200160002060009054906101000a900460ff16600360006101000a81548160ff021916908360ff1602179055506001600360016101000a81548160ff0219169083151502179055507f644b8596dd4abea468b3710d15abb00cf2aa27871e2cb5a5bd9baba4b6b6bd2160405180806020018281038252600c8152602001807f47616d652053746172746564000000000000000000000000000000000000000081525060200191505060405180910390a17f10b81a2361dbb591571438f8cd02fa66e843c7911d772971a59bc375620c5dc76040518080602001828103825260258152602001807f506c61796572203220746f204a6f696e20616e64207468656e206d616b65206181526020017f204d6f766500000000000000000000000000000000000000000000000000000081525060400191505060405180910390a150565b600560009054906101000a900460ff1681565b600360059054906101000a900460ff1681565b60098060000160009054906101000a900460ff16908060000160019054906101000a900460ff16908060010154908060020160009054906101000a900460ff16905084565b565b600360049054906101000a900460ff1681565b60045481565b6001600481111561132357fe5b600660000160019054906101000a900460ff16600481111561134157fe5b14151561134d57600080fd5b6002600481111561135a57fe5b600960000160019054906101000a900460ff16600481111561137857fe5b1415151561138557600080fd5b6002600160003373ffffffffffffffffffffffffffffffffffffffff1673ffffffffffffffffffffffffffffffffffffffff16815260200190815260200160002060006101000a81548160ff021916908360ff160217905550608060405190810160405280600160003373ffffffffffffffffffffffffffffffffffffffff1673ffffffffffffffffffffffffffffffffffffffff16815260200190815260200160002060009054906101000a900460ff1660ff1681526020016002600481111561144c57fe5b815260200182600019168152602001600060ff16815250600960008201518160000160006101000a81548160ff021916908360ff16021790555060208201518160000160016101000a81548160ff021916908360048111156114aa57fe5b02179055506040820151816001019060001916905560608201518160020160006101000a81548160ff021916908360ff160217905550905050600160003373ffffffffffffffffffffffffffffffffffffffff1673ffffffffffffffffffffffffffffffffffffffff16815260200190815260200160002060009054906101000a900460ff16600360006101000a81548160ff021916908360ff1602179055506001600360026101000a81548160ff0219169083151502179055507f525dbc6cc3f742ef1b8cc2313018582f8a9269f84f7ebb0b65520790315f35e460405180806020018281038252600b8152602001807f47616d65204a6f696e656400000000000000000000000000000000000000000081525060200191505060405180910390a17f10b81a2361dbb591571438f8cd02fa66e843c7911d772971a59bc375620c5dc76040518080602001828103825260088152602001807f506c61796572203200000000000000000000000000000000000000000000000081525060200191505060405180910390a150565b600360069054906101000a900460ff1681565b6000806000856040516020018082805190602001908083835b6020831015156116895780518252602082019150602081019050602083039250611664565b6001836020036101000a0380198251168184511680821785525050505050509050019150506040516020818303038152906040526040518082805190602001908083835b6020831015156116f257805182526020820191506020810190506020830392506116cd565b6001836020036101000a03801982511681845116808217855250505050505090500191505060405180910390209150600190505b60078160ff161115156118f057600060028660ff1681151561174457fe5b0660ff16141561181957866001820360ff1660078110151561176257fe5b6020020151826040516020018083600019166000191681526020018260001916600019168152602001925050506040516020818303038152906040526040518082805190602001908083835b6020831015156117d357805182526020820191506020810190506020830392506117ae565b6001836020036101000a0380198251168184511680821785525050505050509050019150506040518091039020915060028560ff1681151561181157fe5b0494506118e3565b81876001830360ff1660078110151561182e57fe5b60200201516040516020018083600019166000191681526020018260001916600019168152602001925050506040516020818303038152906040526040518082805190602001908083835b60208310151561189e5780518252602082019150602081019050602083039250611879565b6001836020036101000a0380198251168184511680821785525050505050509050019150506040518091039020915060026001860160ff168115156118df57fe5b0494505b8080600101915050611726565b600192505050949350505050565b6000606060008084925060009350600091505b82518260ff1610156119d457828260ff1681518110151561192e57fe5b9060200101517f010000000000000000000000000000000000000000000000000000000000000090047f0100000000000000000000000000000000000000000000000000000000000000027f01000000000000000000000000000000000000000000000000000000000000009004905060308160ff16101580156119b6575060398160ff1611155b156119c75760308103600a85020193505b8180600101925050611911565b5050509190505600a165627a7a72305820c6f80bfa937e3d0991127256aaf0d7da8db0e08987a72adca1ce815081f3276c0029",
  "source": "pragma solidity ^0.4.24;\n\ncontract BattleShip {\n  uint public storedData;\n\n  enum GameState {NotStarted,Started,Joined,Playing,Finished}\n  mapping(address => uint8) public player;\n  struct Game{\n    uint8 player;\n    GameState gameState;\n    bytes32 merkleRoot;\n    uint8 move;\n\n  }\n  uint private time;\n  uint8 public currentPlayer;\n  bool public flag1;\n  bool public flag2;\n  uint8 public requiredToWinPlayer1;\n  uint8 public requiredToWinPlayer2;\n  uint8 public previousMovePlayer1;\n  uint8 public previousMovePlayer2;\n  bytes32 public temphash;\n  bool public FirstMove;\n\n\n\n  Game public gamePlayer1;\n  Game public gamePlayer2;\n\n\n  event logGameStarted(string gameStarted);\n  event logGameJoined(string gameJoined);\n  event logCurrentPlayer(string player);\n  event logReturnValue( uint8 current);\n  event logReturnValue1( string current);\n  event logGameWinner(string winner);\n  event logGamePlaying(string gamePlaying);\n  event logGameHit(uint8 ship);\n  event logGamepreviousMove(uint8 position);\n\n\n  modifier isStateNotStarted( ){\n\n           require(gamePlayer1.gameState == GameState.NotStarted); _;\n          }\n\n   modifier isStateStarted( ){\n\n           require((gamePlayer1.gameState == GameState.Started) ); _;\n          }\n\n  modifier isStatePlaying(){\n         require( gamePlayer1.gameState== GameState.Playing || gamePlayer2.gameState== GameState.Playing); _;\n  }\n  modifier isStateFinished(){\n         require( gamePlayer1.gameState== GameState.Finished && gamePlayer2.gameState== GameState.Finished); _;\n  }\n  modifier isStateJoined(){\n         require( gamePlayer1.gameState== GameState.Joined || gamePlayer2.gameState== GameState.Joined); _;\n  }\n\n  modifier isStateNotJoined(){\n         require(  gamePlayer2.gameState != GameState.Joined); _;\n  }\n\n  modifier isCurrentPlayer() {\n          require(player[msg.sender] == currentPlayer); _;\n      }\n  modifier isPlayer1() {\n          require(player[msg.sender] == gamePlayer1.player); _;\n      }\n  modifier isPlayer2() {\n          require(player[msg.sender] == gamePlayer2.player); _;\n      }\n  modifier isPlayer() {\n          require(player[msg.sender] == gamePlayer1.player || player[msg.sender] == gamePlayer2.player); _;\n      }\n\n  modifier isTooLong(){\n      require(time-block.number<=30);_;\n  }\n\nfunction  get() public {\n\n}\n\n  // start a game by one player sending his address and the opponents address\n  //Player1 will go second\n  function newGame( bytes32 merkleroot)   isStateNotStarted()  public  {\n      // check game not started already\n      // Needs the Merkle root of each players board\n\n\n               player[msg.sender] = 1;\n               gamePlayer1 = Game({\n                   player:player[msg.sender], // set to 1 that is player1\n                   gameState:GameState.Started, // set state to started GameState gameState;\n                   merkleRoot: merkleroot, //merkleRoot for player1\n                   move:0\n              } );\n\n              //set currentplayer to player1\n              currentPlayer = player[msg.sender];\n              flag1 = true;\n\n               emit logGameStarted('Game Started');\n               emit logCurrentPlayer('Player 2 to Join and then make a Move');\n\n           }\n\nfunction joinGame(bytes32 merkleroot)   public isStateStarted isStateNotJoined {\n                           //check is state started\n\n                           // Check Game exists and is not joined\n                player[msg.sender]=2;\n                gamePlayer2 = Game({\n                    player:player[msg.sender],//set  player2\n                    merkleRoot: merkleroot, //merkleroot set for player2\n                    gameState:GameState.Joined,//set stated to joined\n                    move:0 // set move to first move\n                  });\n                        //set current player to Player 2\n                          currentPlayer = player[msg.sender];\n                          flag2 = true;\n                         //previousMovePlayer2 = firstMove;\n                         emit logGameJoined('Game Joined');\n                         emit logCurrentPlayer('Player 2');\n\n          }\n\n\n\n\n/*\nfunction firstMove(uint8 move) public {\n       // Check GameState is Joined\n\n                gamePlayer1.gameState = GameState.Playing;// Set game state to Playing\n                gamePlayer2.gameState = GameState.Playing;\n\n\n                if (gamePlayer2.player == currentPlayer) {\n                  previousMovePlayer2 = move;\n                  emit logCurrentPlayer('Player 1');\n                  currentPlayer = gamePlayer1.player;\n                }\n                if (gamePlayer1.player == currentPlayer) {\n                  previousMovePlayer1 = move;\n                  emit logCurrentPlayer('Player 2');\n                  currentPlayer = gamePlayer1.player;\n              }\n                emit logGamePlaying('Playing First Moves');\n                emit logGamepreviousMove(move);\n\n\n}\n*/\nfunction makeMove(uint8 move,string leafValue,bytes32[7] merkleProof)  public isPlayer isTooLong isStatePlaying() {\n\n\n\nif (gamePlayer1.player == currentPlayer) {\n     //so if Player1 is the current Player\n     //he sends his present move plus value of his grid at the value of players2 last move\n    // Plus the proof that this value is valid\n    bytes32 _root1 = gamePlayer1.merkleRoot;\n   if(!utilities.verifyProof(merkleProof,leafValue,previousMovePlayer2,_root1)){\n     // set this player as winner and end the game\n     emit logGameWinner('Winner is Player 1 by default');\n     gamePlayer1.gameState = GameState.Finished;\n     gamePlayer2.gameState = GameState.Finished;\n     revert('Board was Changed');\n   }\n\n    //Failing the merkleProof should just bomb the contract and award the ether to other player that is player2\n   // But assuming the rest of this code wont run unless its true\n\n\n  currentPlayer = gamePlayer2.player; //swop players\n  emit logCurrentPlayer('Player 2');\n  emit logGamePlaying('Playing');\n  emit logGameHit(utilities.stringToUint(leafValue));\n  emit logGamepreviousMove(move);\n\n\n   previousMovePlayer1 = move;\n\n//if value is equal to 30 then declare a winner can grief by not putting in correct values?\n  requiredToWinPlayer1 += utilities.stringToUint(leafValue);\n  if (requiredToWinPlayer2 == 32){\n      emit logGameWinner('Winner is Player 1');\n      gamePlayer1.gameState = GameState.Finished;\n      gamePlayer2.gameState = GameState.Finished;\n\n}\n\n  time = block.number;\n    }\nelse if (gamePlayer2.player==currentPlayer) {\n  //Take care of first move\n//if(flag2) {firstMove(move);flag2 = false; return;}\n    bytes32 _root2 = gamePlayer2.merkleRoot;\n  if(!utilities.verifyProof(merkleProof,leafValue,previousMovePlayer1,_root2)){\n//set this player as winner and end the game\n  emit logGameWinner('Winner is Player 2 by default');\n  gamePlayer1.gameState = GameState.Finished;\n  gamePlayer2.gameState = GameState.Finished;\n  revert(\"Board was Changed\");\n  }\n    currentPlayer = gamePlayer1.player; //swop players\n\n    emit logCurrentPlayer('Player 1');\n    emit logGamePlaying('Playing');\n    emit logGameHit(utilities.stringToUint(leafValue));\n    emit logGamepreviousMove(move);\n\n\n      previousMovePlayer2 = move;\n\n  requiredToWinPlayer2 += utilities.stringToUint(leafValue);\n   if (requiredToWinPlayer2 == 32){emit logGameWinner('Winner is Player 2');\n    gamePlayer1.gameState = GameState.Finished;\n    gamePlayer2.gameState = GameState.Finished;\n    }\n\n   time = block.number;\n      }\n\n}\n\n\n}\n\n\nlibrary utilities {\n\nfunction stringToUint(string s) internal pure returns (uint8 result) {\n        bytes memory b = bytes(s);\n        uint8 i;\n        result = 0;\n        for (i = 0; i < b.length; i++) {\n            uint8 c = uint8(b[i]);\n            if (c >= 48 && c <= 57) {\n                result = result * 10 + (c - 48);\n            }\n        }\n}\n\nfunction verifyProof(bytes32[7] proofElement,string leafValue,uint8 previousmove,bytes32 _root) internal pure returns(bool) {\n\n      bytes32 tempHash;\n // find the hash of the value at previousmove\n    tempHash = keccak256(abi.encodePacked(leafValue));\n\n    for(uint8 i=1;i<=7;i++)\n        {\n\n        if (previousmove%2 == 0)\n            {\n                tempHash = keccak256(abi.encodePacked(proofElement[i-1],tempHash));\n                previousmove = previousmove/2;\n            }\n        else{\n                tempHash = keccak256(abi.encodePacked(tempHash,proofElement[i-1]));\n                previousmove = (previousmove+1)/2;\n            }\n        }\n\n\n// going to hard wire it till I figure hashes out return (tempHash == _root);\nreturn(true);\n}\n}\n",
  "sourcePath": "/home/don/battleShip/contracts/BattleShip.sol",
  "compiler": {
    "name": "solc",
    "version": "0.4.24+commit.e67f0147.Emscripten.clang"
  },
  "schemaVersion": "2.0.1",
  "updatedAt": "2018-08-26T09:28:30.168Z"
}